:020000040000FA
:06000000D9EF02F012002E
:020006000000F8
:080008000CD8030EE66EE66A57
:100010002ED8E552E55292D8C0D8EED81CD9FBD7DD
:100020001200C00E936EE00E946EC280F00EC114EA
:100030000C09C16ECF0EC1140009C16EC70EC014E9
:100040001009C06EF80EC0140209C06EC08ECA84BA
:10005000FC0ECA140109CA6EF00EBD140F09BD6E64
:10006000F00EBA140F09BA6EF90ECB6E1200D9CF8A
:10007000E6FFE1CFD9FF020EE126DE6ADD6ADECFC0
:1000800014F0DDCF15F0153404E214500108000E11
:10009000155415E38A868A888A8A7D0EE66EA2EC5C
:1000A00002F0E5528A968A988A9A7D0EE66EA2EC54
:1000B00002F0E552DF2A010E01E3DB2AE0D7020E4F
:1000C000E15C02E2E16AE552E16EE552E7CFD9FF79
:1000D0001200D9CFE6FFE1CFD9FF020EE126C2829E
:1000E000C2B2FED7C350186E196AC450166E176A92
:1000F000086A010E096E16C00DF017C00EF075ECFF
:1001000002F006501824146E07501920156E14C002
:10011000DEFF15C0DDFFDECF14F0DDCF15F014C01B
:10012000F3FF15C0F4FF020EE15C03E200D0E16AC8
:10013000E552E16EE552E7CFD9FF1200D9CFE6FFD5
:10014000E1CFD9FF020EE1268A84030EE66EB9ECF8
:1001500002F0E552C30EC2140809C26EBADFF3CF33
:10016000DEFFF4CFDDFFDECF14F0DDCF15F0D89049
:10017000155004E6580E145C020E155802E28A86E9
:1001800001D08A968A94020EE15C02E2E16AE552AD
:10019000E16EE552E7CFD9FF1200D9CFE6FFE1CFFC
:1001A000D9FF020EE1268A82030EE66EB9EC02F058
:1001B000E552C30EC2140409C26E8BDFF3CFDEFF1B
:1001C000F4CFDDFFDECF14F0DDCF15F0D890155061
:1001D00004E69A0E145C010E155802E28A8801D0DA
:1001E0008A988A92020EE15C02E2E16AE552E16ECF
:1001F000E552E7CFD9FF1200D9CFE6FFE1CFD9FF13
:10020000020EE1268A80030EE66EB9EC02F0E5529A
:10021000C30EC2140009C26E5CDFF3CFDEFFF4CF61
:10022000DDFFDECF14F0DDCF15F0D890155004E6D9
:10023000F40E145C010E155802E28A8A01D08A9AE3
:100240008A90020EE15C02E2E16AE552E16EE5525B
:10025000E7CFD9FF1200D9CFE6FFE1CFD9FFE652B1
:100260008A50200B01E0010E156E8A50100B01E040
:10027000010EE824146E8A50080B01E0010E040DF3
:10028000F35014241524DF6E8B808B868B98DF50FF
:10029000060A70E0020A60E0070A4FE0020A3FE047
:1002A000040A2FE0050A1FE0070A01E072D08B82E2
:1002B0008B84FA0EE66EA2EC02F0E552FA0EE66EC0
:1002C000A2EC02F0E552FA0EE66EA2EC02F0E55264
:1002D000FA0EE66EA2EC02F0E5528A968A988A9AA5
:1002E0008B98FBD756D0B40EE66EE66A83D8E552FB
:1002F000E552B40EE66EE66A51D8E552E5528B88B7
:1003000048D0B40EE66EE66A75D8E552E552B40EF2
:10031000E66EE66A43D8E552E5528B883AD0B40ED1
:10032000E66EE66A67D8E552E552FA0EE66EE66AD0
:1003300035D8E552E5528B882CD0640EE66EE66A1D
:1003400059D8E552E552900EE66E010EE66E26D8BB
:10035000E552E5528B881DD0FA0EE66EE66A4AD861
:10036000E552E552B40EE66EE66A18D8E552E5525B
:100370008B880FD0900EE66E010EE66E3BD8E552EC
:10038000E552640EE66EE66A09D8E552E5528B88BE
:1003900000D0E552E552E7CFD9FF1200D9CFE6FFF2
:1003A000E1CFD9FFFD0EDBCF14F0FE0EDBCF15F051
:1003B000D89015321432D890153214321450BE6EC3
:1003C000030EE76EFD0EDBCF14F0FE0EDBCF15F053
:1003D000E7501416156A1450030BF36EF346F346F8
:1003E000F346F346CF0EBD14F310BD6EE552E7CFD2
:1003F000D9FF1200D9CFE6FFE1CFD9FFFD0EDBCF49
:1004000014F0FE0EDBCF15F0D89015321432D890D0
:10041000153214321450BB6E030EE76EFD0EDBCFA7
:1004200014F0FE0EDBCF15F0E7501416156A1450C9
:10043000030BF36EF346F346F346F346CF0EBA14BE
:0C044000F310BA6EE552E7CFD9FF1200AE
:04044C00060EF66E34
:10045000000EF76E000EF86E00010900F550856F72
:100460000900F550866F03E1856701D03DD0090092
:10047000F550806F0900F550816F0900F550826FCB
:1004800009000900F550E96E0900F550EA6E09000F
:1004900009000900F550836F0900F550846F0900C9
:1004A0000900F6CF87F0F7CF88F0F8CF89F080C049
:1004B000F6FF81C0F7FF82C0F8FF0001835302E11D
:1004C000845307E00900F550EE6E8307F8E28407D5
:1004D000F9D787C0F6FF88C0F7FF89C0F8FF000191
:0A04E0008507000E865BBFD71200EF
:0604EA0009C013F008C078
:1004F00012F008500D02F4CF07F0F3CF06F00950C8
:100500000E02F4CF09F0F3CF08F00D02F3500726E6
:10051000F4500822E86A092212500E02F35007260E
:10052000F4500822E86A09220EAE9BEF02F0125046
:10053000085E1350095A13AE000C0D50085E0E50A1
:04054000095A000C48
:0C054400FF0EE3501B6EEF0E01D0F30E13
:10055000E76EE72EA9EF02F00C0E1A6EE76AE72E9F
:10056000AFEF02F01A2EAEEF02F01B2EA7EF02F053
:02057000120077
:0E057200FF0EE3501B6E480E01D04C0EE76EDC
:10058000E72EFED7E76AE72EFED71B2EF7D700002F
:02059000120057
:0E059200000EF36E00EE00F0060E01D812000F
:1005A000EA6002D0EE6AFCD7F350E9601200EE6A0E
:0205B000FCD776
:0E05B20015EE00F025EE00F0F86A019C26EC34
:0E05C00002F0E7EC02F004EC00F0FBD71200B2
:0205CE00120019
:00000001FF
